{
  "contractName": "Blackjack",
  "abi": [
    {
      "inputs": [],
      "stateMutability": "nonpayable",
      "type": "constructor"
    },
    {
      "anonymous": false,
      "inputs": [
        {
          "indexed": false,
          "internalType": "uint256",
          "name": "gameId",
          "type": "uint256"
        },
        {
          "indexed": false,
          "internalType": "uint64",
          "name": "round",
          "type": "uint64"
        },
        {
          "indexed": false,
          "internalType": "uint8",
          "name": "cardValue",
          "type": "uint8"
        },
        {
          "indexed": false,
          "internalType": "uint8",
          "name": "score",
          "type": "uint8"
        }
      ],
      "name": "CardDrawn",
      "type": "event"
    },
    {
      "anonymous": false,
      "inputs": [
        {
          "indexed": false,
          "internalType": "uint256",
          "name": "gameId",
          "type": "uint256"
        },
        {
          "indexed": false,
          "internalType": "uint64",
          "name": "round",
          "type": "uint64"
        },
        {
          "indexed": false,
          "internalType": "address",
          "name": "player",
          "type": "address"
        },
        {
          "indexed": false,
          "internalType": "uint256",
          "name": "bet",
          "type": "uint256"
        }
      ],
      "name": "NewRound",
      "type": "event"
    },
    {
      "anonymous": false,
      "inputs": [
        {
          "indexed": true,
          "internalType": "address",
          "name": "previousOwner",
          "type": "address"
        },
        {
          "indexed": true,
          "internalType": "address",
          "name": "newOwner",
          "type": "address"
        }
      ],
      "name": "OwnershipTransferred",
      "type": "event"
    },
    {
      "anonymous": false,
      "inputs": [
        {
          "indexed": false,
          "internalType": "uint256",
          "name": "gameId",
          "type": "uint256"
        },
        {
          "indexed": false,
          "internalType": "uint256[]",
          "name": "playerHand",
          "type": "uint256[]"
        }
      ],
      "name": "PlayerHand",
      "type": "event"
    },
    {
      "anonymous": false,
      "inputs": [
        {
          "indexed": false,
          "internalType": "address",
          "name": "",
          "type": "address"
        },
        {
          "indexed": false,
          "internalType": "uint256",
          "name": "",
          "type": "uint256"
        }
      ],
      "name": "Received",
      "type": "event"
    },
    {
      "anonymous": false,
      "inputs": [
        {
          "indexed": false,
          "internalType": "uint256",
          "name": "gameId",
          "type": "uint256"
        },
        {
          "indexed": false,
          "internalType": "uint64",
          "name": "round",
          "type": "uint64"
        },
        {
          "indexed": false,
          "internalType": "uint256",
          "name": "payout",
          "type": "uint256"
        },
        {
          "indexed": false,
          "internalType": "uint8",
          "name": "playerScore",
          "type": "uint8"
        },
        {
          "indexed": false,
          "internalType": "uint8",
          "name": "dealerScore",
          "type": "uint8"
        }
      ],
      "name": "Result",
      "type": "event"
    },
    {
      "anonymous": false,
      "inputs": [
        {
          "indexed": false,
          "internalType": "uint256",
          "name": "gameId",
          "type": "uint256"
        },
        {
          "indexed": false,
          "internalType": "uint64",
          "name": "round",
          "type": "uint64"
        },
        {
          "indexed": false,
          "internalType": "enum IBlackjack.Stage",
          "name": "newStage",
          "type": "uint8"
        }
      ],
      "name": "StageChanged",
      "type": "event"
    },
    {
      "stateMutability": "nonpayable",
      "type": "fallback"
    },
    {
      "inputs": [],
      "name": "owner",
      "outputs": [
        {
          "internalType": "address",
          "name": "",
          "type": "address"
        }
      ],
      "stateMutability": "view",
      "type": "function"
    },
    {
      "inputs": [],
      "name": "renounceOwnership",
      "outputs": [],
      "stateMutability": "nonpayable",
      "type": "function"
    },
    {
      "inputs": [
        {
          "internalType": "address",
          "name": "newOwner",
          "type": "address"
        }
      ],
      "name": "transferOwnership",
      "outputs": [],
      "stateMutability": "nonpayable",
      "type": "function"
    },
    {
      "stateMutability": "payable",
      "type": "receive"
    },
    {
      "inputs": [],
      "name": "kill",
      "outputs": [],
      "stateMutability": "nonpayable",
      "type": "function"
    },
    {
      "inputs": [],
      "name": "newRound",
      "outputs": [],
      "stateMutability": "payable",
      "type": "function"
    },
    {
      "inputs": [],
      "name": "hit",
      "outputs": [],
      "stateMutability": "nonpayable",
      "type": "function"
    },
    {
      "inputs": [],
      "name": "stand",
      "outputs": [],
      "stateMutability": "nonpayable",
      "type": "function"
    },
    {
      "inputs": [],
      "name": "getDealerState",
      "outputs": [
        {
          "internalType": "uint256[]",
          "name": "hand",
          "type": "uint256[]"
        },
        {
          "internalType": "uint256",
          "name": "score",
          "type": "uint256"
        }
      ],
      "stateMutability": "view",
      "type": "function"
    },
    {
      "inputs": [],
      "name": "getPlayerState",
      "outputs": [
        {
          "internalType": "uint256[]",
          "name": "hand",
          "type": "uint256[]"
        },
        {
          "internalType": "uint256",
          "name": "score",
          "type": "uint256"
        },
        {
          "internalType": "uint256",
          "name": "bet",
          "type": "uint256"
        }
      ],
      "stateMutability": "view",
      "type": "function"
    },
    {
      "inputs": [],
      "name": "getGameState",
      "outputs": [
        {
          "internalType": "uint256",
          "name": "gameId",
          "type": "uint256"
        },
        {
          "internalType": "uint64",
          "name": "startTime",
          "type": "uint64"
        },
        {
          "internalType": "uint256",
          "name": "gameMaxBet",
          "type": "uint256"
        },
        {
          "internalType": "uint64",
          "name": "round",
          "type": "uint64"
        },
        {
          "internalType": "enum IBlackjack.Stage",
          "name": "stage",
          "type": "uint8"
        }
      ],
      "stateMutability": "view",
      "type": "function"
    }
  ],
  "bytecode": "0x6080604052604051806101a00160405280600b60ff168152602001600260ff168152602001600360ff168152602001600460ff168152602001600560ff168152602001600660ff168152602001600760ff168152602001600860ff168152602001600960ff168152602001600a60ff168152602001600a60ff168152602001600a60ff168152602001600a60ff16815250600190600d620000a2929190620001aa565b50348015620000b057600080fd5b50620000d1620000c5620000de60201b60201c565b620000e660201b60201c565b426003819055506200026a565b600033905090565b60008060009054906101000a900473ffffffffffffffffffffffffffffffffffffffff169050816000806101000a81548173ffffffffffffffffffffffffffffffffffffffff021916908373ffffffffffffffffffffffffffffffffffffffff1602179055508173ffffffffffffffffffffffffffffffffffffffff168173ffffffffffffffffffffffffffffffffffffffff167f8be0079c531659141344cd1fd0a4f28419497f9722a3daafe3b4186f6b6457e060405160405180910390a35050565b82600d601f01602090048101928215620002385791602002820160005b838211156200020757835183826101000a81548160ff021916908360ff1602179055509260200192600101602081600001049283019260010302620001c7565b8015620002365782816101000a81549060ff021916905560010160208160000104928301926001030262000207565b505b5090506200024791906200024b565b5090565b5b80821115620002665760008160009055506001016200024c565b5090565b6121af806200027a6000396000f3fe6080604052600436106100955760003560e01c80638da5cb5b116100595780638da5cb5b14610191578063b7d0628b146101bc578063c2897b10146101eb578063c5b1d9aa14610202578063f2fde38b1461020c576100e5565b80632ae3594a146100f357806341c0e1b51461010a5780636c4941f514610121578063715018a61461014e5780637695775614610165576100e5565b366100e5577f88a5966d370b9919b20f3e2c13ff65706f196a4e32cc2c12bf57088f8852587433346040516100cb92919061162e565b60405180910390a16100de476002610235565b6004819055005b3480156100f157600080fd5b005b3480156100ff57600080fd5b5061010861024b565b005b34801561011657600080fd5b5061011f6103ce565b005b34801561012d57600080fd5b506101366103f6565b60405161014593929190611715565b60405180910390f35b34801561015a57600080fd5b506101636104c0565b005b34801561017157600080fd5b5061017a6104d4565b604051610188929190611753565b60405180910390f35b34801561019d57600080fd5b506101a6610591565b6040516101b39190611783565b60405180910390f35b3480156101c857600080fd5b506101d16105ba565b6040516101e2959493929190611838565b60405180910390f35b3480156101f757600080fd5b50610200610662565b005b61020a610772565b005b34801561021857600080fd5b50610233600480360381019061022e91906118bc565b610b1e565b005b600081836102439190611947565b905092915050565b60018060028111156102605761025f6117c1565b5b600260003373ffffffffffffffffffffffffffffffffffffffff1673ffffffffffffffffffffffffffffffffffffffff16815260200190815260200160002060010160109054906101000a900460ff1660028111156102c2576102c16117c1565b5b14610302576040517f08c379a00000000000000000000000000000000000000000000000000000000081526004016102f9906119fb565b60405180910390fd5b6000600260003373ffffffffffffffffffffffffffffffffffffffff1673ffffffffffffffffffffffffffffffffffffffff168152602001908152602001600020905060158160050160010160009054906101000a900460ff1660ff161061036957600080fd5b6103768182600501610ba1565b61038281600501610ce0565b8160050160010160006101000a81548160ff021916908360ff16021790555060158160050160010160009054906101000a900460ff1660ff16106103ca576103c981610ddd565b5b5050565b6103d6610eb5565b6103de610591565b73ffffffffffffffffffffffffffffffffffffffff16ff5b60606000806000600260003373ffffffffffffffffffffffffffffffffffffffff1673ffffffffffffffffffffffffffffffffffffffff16815260200190815260200160002090508060050160020180548060200260200160405190810160405280929190818152602001828054801561048f57602002820191906000526020600020905b81548152602001906001019080831161047b575b505050505093508060050160010160009054906101000a900460ff1660ff1692508060050160000154915050909192565b6104c8610eb5565b6104d26000610f33565b565b6060600080600260003373ffffffffffffffffffffffffffffffffffffffff1673ffffffffffffffffffffffffffffffffffffffff16815260200190815260200160002090508060020160020180548060200260200160405190810160405280929190818152602001828054801561056b57602002820191906000526020600020905b815481526020019060010190808311610557575b505050505092508060020160010160009054906101000a900460ff1660ff169150509091565b60008060009054906101000a900473ffffffffffffffffffffffffffffffffffffffff16905090565b600080600080600080600260003373ffffffffffffffffffffffffffffffffffffffff1673ffffffffffffffffffffffffffffffffffffffff1681526020019081526020016000209050806000015495508060010160009054906101000a900467ffffffffffffffff16945060045493508060010160089054906101000a900467ffffffffffffffff1692508060010160109054906101000a900460ff169150509091929394565b6001806002811115610677576106766117c1565b5b600260003373ffffffffffffffffffffffffffffffffffffffff1673ffffffffffffffffffffffffffffffffffffffff16815260200190815260200160002060010160109054906101000a900460ff1660028111156106d9576106d86117c1565b5b14610719576040517f08c379a0000000000000000000000000000000000000000000000000000000008152600401610710906119fb565b60405180910390fd5b6000600260003373ffffffffffffffffffffffffffffffffffffffff1673ffffffffffffffffffffffffffffffffffffffff168152602001908152602001600020905061076581610ddd565b61076e81610ff7565b5050565b6004543411156107b7576040517f08c379a00000000000000000000000000000000000000000000000000000000081526004016107ae90611a8d565b60405180910390fd5b600042336040516020016107cc929190611b16565b6040516020818303038152906040528051906020012060001c90506107ef611546565b6107f7611546565b6040518060c001604052808481526020014267ffffffffffffffff168152602001600067ffffffffffffffff1681526020016000600281111561083d5761083c6117c1565b5b815260200183815260200182815250600260003373ffffffffffffffffffffffffffffffffffffffff1673ffffffffffffffffffffffffffffffffffffffff1681526020019081526020016000206000820151816000015560208201518160010160006101000a81548167ffffffffffffffff021916908367ffffffffffffffff16021790555060408201518160010160086101000a81548167ffffffffffffffff021916908367ffffffffffffffff16021790555060608201518160010160106101000a81548160ff0219169083600281111561091e5761091d6117c1565b5b02179055506080820151816002016000820151816000015560208201518160010160006101000a81548160ff021916908360ff160217905550604082015181600201908051906020019061097392919061156a565b50505060a0820151816005016000820151816000015560208201518160010160006101000a81548160ff021916908360ff16021790555060408201518160020190805190602001906109c692919061156a565b5050509050506000600260003373ffffffffffffffffffffffffffffffffffffffff1673ffffffffffffffffffffffffffffffffffffffff168152602001908152602001600020905034816005016000018190555080600101600881819054906101000a900467ffffffffffffffff1680929190610a4390611b42565b91906101000a81548167ffffffffffffffff021916908367ffffffffffffffff160217905550507f3d4e45c47472036df382bcd86971010e0654905f09ea384e13d66343a969a7ab81600001548260010160089054906101000a900467ffffffffffffffff163334604051610abb9493929190611b72565b60405180910390a1610acc81611178565b7f115f04a14d2ae5419d659fa3beeaf66f4a987bae221f46542f81b59031deadb9816000015482600501600201604051610b07929190611c8d565b60405180910390a1610b1881610ddd565b50505050565b610b26610eb5565b600073ffffffffffffffffffffffffffffffffffffffff168173ffffffffffffffffffffffffffffffffffffffff1603610b95576040517f08c379a0000000000000000000000000000000000000000000000000000000008152600401610b8c90611d2f565b60405180910390fd5b610b9e81610f33565b50565b6000610bab61125a565b90505b610bbe81846002016002016112b3565b80610bd55750610bd481846005016002016112b3565b5b15610be957610be261125a565b9050610bae565b81600201819080600181540180825580915050600190039060005260206000200160009091909190915055610c1d82610ce0565b8260010160006101000a81548160ff021916908360ff1602179055507fbf6ada8879281cec14c5f104be3c1b3acdccf97645f07c2b0a23eed63901762e83600001548460010160089054906101000a900467ffffffffffffffff166001600d85610c879190611d4f565b60ff16600d8110610c9b57610c9a611d80565b5b602091828204019190069054906101000a900460ff168560010160009054906101000a900460ff16604051610cd39493929190611dcb565b60405180910390a1505050565b6000806000905060005b83600201805490508160ff161015610d98576000600d856002018360ff1681548110610d1957610d18611d80565b5b9060005260206000200154610d2e9190611d4f565b905060018160ff16600d8110610d4757610d46611d80565b5b602091828204019190069054906101000a900460ff1684610d689190611e10565b935060008160ff1603610d84578280610d8090611e47565b9350505b508080610d9090611e47565b915050610cea565b505b60008160ff16118015610db0575060158260ff16115b15610dd757600a82610dc29190611e70565b91508080610dcf90611ea4565b915050610d9a565b50919050565b60018160010160109054906101000a900460ff166002811115610e0357610e026117c1565b5b610e0d9190611ecd565b6002811115610e1f57610e1e6117c1565b5b8160010160106101000a81548160ff02191690836002811115610e4557610e446117c1565b5b02179055507fbf34949e790239ec64f4107f427fa499173e6574405ea4955901f4a81f05bbbd81600001548260010160089054906101000a900467ffffffffffffffff168360010160109054906101000a900460ff16604051610eaa93929190611f23565b60405180910390a150565b610ebd61131a565b73ffffffffffffffffffffffffffffffffffffffff16610edb610591565b73ffffffffffffffffffffffffffffffffffffffff1614610f31576040517f08c379a0000000000000000000000000000000000000000000000000000000008152600401610f2890611fa6565b60405180910390fd5b565b60008060009054906101000a900473ffffffffffffffffffffffffffffffffffffffff169050816000806101000a81548173ffffffffffffffffffffffffffffffffffffffff021916908373ffffffffffffffffffffffffffffffffffffffff1602179055508173ffffffffffffffffffffffffffffffffffffffff168173ffffffffffffffffffffffffffffffffffffffff167f8be0079c531659141344cd1fd0a4f28419497f9722a3daafe3b4186f6b6457e060405160405180910390a35050565b600061100282611322565b60158260050160010160009054906101000a900460ff1660ff1611611036576110338161102e846113a1565b61151a565b90505b61104882600501600001546002611530565b81111561108a576040517f08c379a000000000000000000000000000000000000000000000000000000000815260040161108190612038565b60405180910390fd5b600081146110e05760003390508073ffffffffffffffffffffffffffffffffffffffff166108fc839081150290604051600060405180830381858888f193505050501580156110dd573d6000803e3d6000fd5b50505b6110eb476002610235565b6004819055507f1b95d75fb3f54f1f6c0a87f3b89ba37635d37eb4ba5d37d0a38240f74830fb0582600001548360010160089054906101000a900467ffffffffffffffff16838560050160010160009054906101000a900460ff168660020160010160009054906101000a900460ff1660405161116c959493929190612058565b60405180910390a15050565b600080600281111561118d5761118c6117c1565b5b600260003373ffffffffffffffffffffffffffffffffffffffff1673ffffffffffffffffffffffffffffffffffffffff16815260200190815260200160002060010160109054906101000a900460ff1660028111156111ef576111ee6117c1565b5b1461122f576040517f08c379a0000000000000000000000000000000000000000000000000000000008152600401611226906119fb565b60405180910390fd5b61123c8283600501610ba1565b6112498283600201610ba1565b6112568283600501610ba1565b5050565b60006034426003546040516020016112739291906120ab565b6040516020818303038152906040528051906020012060001c6112969190611d4f565b9050600360008154809291906112ab906120d7565b919050555090565b600080600090505b82805490508160ff16101561130e57828160ff16815481106112e0576112df611d80565b5b906000526020600020015484036112fb576001915050611314565b808061130690611e47565b9150506112bb565b50600090505b92915050565b600033905090565b60158160050160010160009054906101000a900460ff1660ff1611156113545761134f8182600201610ba1565b61139e565b5b8060050160010160009054906101000a900460ff1660ff168160020160010160009054906101000a900460ff1660ff16101561139d576113988182600201610ba1565b611355565b5b50565b60008082600201604051806060016040529081600082015481526020016001820160009054906101000a900460ff1660ff1660ff1681526020016002820180548060200260200160405190810160405280929190818152602001828054801561142957602002820191906000526020600020905b815481526020019060010190808311611415575b5050505050815250509050600083600501604051806060016040529081600082015481526020016001820160009054906101000a900460ff1660ff1660ff168152602001600282018054806020026020016040519081016040528092919081815260200182805480156114bb57602002820191906000526020600020905b8154815260200190600101908083116114a7575b5050505050815250509050816020015160ff16816020015160ff16036114e75780600001519250611513565b6015826020015160ff16111561150d5761150681600001516002611530565b9250611512565b600092505b5b5050919050565b600081836115289190611ecd565b905092915050565b6000818361153e919061211f565b905092915050565b604051806060016040528060008152602001600060ff168152602001606081525090565b8280548282559060005260206000209081019282156115a6579160200282015b828111156115a557825182559160200191906001019061158a565b5b5090506115b391906115b7565b5090565b5b808211156115d05760008160009055506001016115b8565b5090565b600073ffffffffffffffffffffffffffffffffffffffff82169050919050565b60006115ff826115d4565b9050919050565b61160f816115f4565b82525050565b6000819050919050565b61162881611615565b82525050565b60006040820190506116436000830185611606565b611650602083018461161f565b9392505050565b600081519050919050565b600082825260208201905092915050565b6000819050602082019050919050565b61168c81611615565b82525050565b600061169e8383611683565b60208301905092915050565b6000602082019050919050565b60006116c282611657565b6116cc8185611662565b93506116d783611673565b8060005b838110156117085781516116ef8882611692565b97506116fa836116aa565b9250506001810190506116db565b5085935050505092915050565b6000606082019050818103600083015261172f81866116b7565b905061173e602083018561161f565b61174b604083018461161f565b949350505050565b6000604082019050818103600083015261176d81856116b7565b905061177c602083018461161f565b9392505050565b60006020820190506117986000830184611606565b92915050565b600067ffffffffffffffff82169050919050565b6117bb8161179e565b82525050565b7f4e487b7100000000000000000000000000000000000000000000000000000000600052602160045260246000fd5b60038110611801576118006117c1565b5b50565b6000819050611812826117f0565b919050565b600061182282611804565b9050919050565b61183281611817565b82525050565b600060a08201905061184d600083018861161f565b61185a60208301876117b2565b611867604083018661161f565b61187460608301856117b2565b6118816080830184611829565b9695505050505050565b600080fd5b611899816115f4565b81146118a457600080fd5b50565b6000813590506118b681611890565b92915050565b6000602082840312156118d2576118d161188b565b5b60006118e0848285016118a7565b91505092915050565b7f4e487b7100000000000000000000000000000000000000000000000000000000600052601260045260246000fd5b7f4e487b7100000000000000000000000000000000000000000000000000000000600052601160045260246000fd5b600061195282611615565b915061195d83611615565b92508261196d5761196c6118e9565b5b828204905092915050565b600082825260208201905092915050565b7f46756e6374696f6e2063616e6e6f742062652063616c6c65642061742074686960008201527f732074696d652e00000000000000000000000000000000000000000000000000602082015250565b60006119e5602783611978565b91506119f082611989565b604082019050919050565b60006020820190508181036000830152611a14816119d8565b9050919050565b7f426574206d757374206265206c657373207468616e20746865206d617820626560008201527f742e000000000000000000000000000000000000000000000000000000000000602082015250565b6000611a77602283611978565b9150611a8282611a1b565b604082019050919050565b60006020820190508181036000830152611aa681611a6a565b9050919050565b6000819050919050565b611ac8611ac382611615565b611aad565b82525050565b60008160601b9050919050565b6000611ae682611ace565b9050919050565b6000611af882611adb565b9050919050565b611b10611b0b826115f4565b611aed565b82525050565b6000611b228285611ab7565b602082019150611b328284611aff565b6014820191508190509392505050565b6000611b4d8261179e565b915067ffffffffffffffff8203611b6757611b66611918565b5b600182019050919050565b6000608082019050611b87600083018761161f565b611b9460208301866117b2565b611ba16040830185611606565b611bae606083018461161f565b95945050505050565b600081549050919050565b60008190508160005260206000209050919050565b60008160001c9050919050565b6000819050919050565b6000611c01611bfc83611bd7565b611be4565b9050919050565b6000611c148254611bee565b9050919050565b6000600182019050919050565b6000611c3382611bb7565b611c3d8185611662565b9350611c4883611bc2565b8060005b83811015611c8057611c5d82611c08565b611c678882611692565b9750611c7283611c1b565b925050600181019050611c4c565b5085935050505092915050565b6000604082019050611ca2600083018561161f565b8181036020830152611cb48184611c28565b90509392505050565b7f4f776e61626c653a206e6577206f776e657220697320746865207a65726f206160008201527f6464726573730000000000000000000000000000000000000000000000000000602082015250565b6000611d19602683611978565b9150611d2482611cbd565b604082019050919050565b60006020820190508181036000830152611d4881611d0c565b9050919050565b6000611d5a82611615565b9150611d6583611615565b925082611d7557611d746118e9565b5b828206905092915050565b7f4e487b7100000000000000000000000000000000000000000000000000000000600052603260045260246000fd5b600060ff82169050919050565b611dc581611daf565b82525050565b6000608082019050611de0600083018761161f565b611ded60208301866117b2565b611dfa6040830185611dbc565b611e076060830184611dbc565b95945050505050565b6000611e1b82611daf565b9150611e2683611daf565b92508260ff03821115611e3c57611e3b611918565b5b828201905092915050565b6000611e5282611daf565b915060ff8203611e6557611e64611918565b5b600182019050919050565b6000611e7b82611daf565b9150611e8683611daf565b925082821015611e9957611e98611918565b5b828203905092915050565b6000611eaf82611daf565b915060008203611ec257611ec1611918565b5b600182039050919050565b6000611ed882611615565b9150611ee383611615565b9250827fffffffffffffffffffffffffffffffffffffffffffffffffffffffffffffffff03821115611f1857611f17611918565b5b828201905092915050565b6000606082019050611f38600083018661161f565b611f4560208301856117b2565b611f526040830184611829565b949350505050565b7f4f776e61626c653a2063616c6c6572206973206e6f7420746865206f776e6572600082015250565b6000611f90602083611978565b9150611f9b82611f5a565b602082019050919050565b60006020820190508181036000830152611fbf81611f83565b9050919050565b7f4465616c6572206572726f72202d207061796f757420697320746f206869676860008201527f2e00000000000000000000000000000000000000000000000000000000000000602082015250565b6000612022602183611978565b915061202d82611fc6565b604082019050919050565b6000602082019050818103600083015261205181612015565b9050919050565b600060a08201905061206d600083018861161f565b61207a60208301876117b2565b612087604083018661161f565b6120946060830185611dbc565b6120a16080830184611dbc565b9695505050505050565b60006120b78285611ab7565b6020820191506120c78284611ab7565b6020820191508190509392505050565b60006120e282611615565b91507fffffffffffffffffffffffffffffffffffffffffffffffffffffffffffffffff820361211457612113611918565b5b600182019050919050565b600061212a82611615565b915061213583611615565b9250817fffffffffffffffffffffffffffffffffffffffffffffffffffffffffffffffff048311821515161561216e5761216d611918565b5b82820290509291505056fea264697066735822122084d2746705488c6fd315aea83141c43576592061eba3a6071d99308b3333079564736f6c634300080f0033",
  "immutableReferences": {},
  "source": "pragma solidity ^0.8.15;\n\nimport \"@openzeppelin/contracts/access/Ownable.sol\";\nimport \"@openzeppelin/contracts/utils/math/SafeMath.sol\";\nimport \"./IBlackjack.sol\";\n\ncontract Blackjack is IBlackjack, Ownable {\n\n  using SafeMath for *;\n\n  uint8[13] cardValues = [11, 2, 3, 4, 5, 6, 7, 8, 9, 10, 10, 10, 10];\n  mapping(address => Game) games;\n  uint seed;\n  uint maxBet;\n\n  constructor() {\n    seed = block.timestamp;\n  }\n\n  fallback() external {}\n\n  receive() external payable {\n    emit Received(msg.sender, msg.value);\n\n    maxBet = SafeMath.div(address(this).balance, 2);\n  }\n\n  function kill() public onlyOwner() {\n    selfdestruct(payable(owner()));\n  }\n\n  modifier atStage(Stage _stage) {\n    require(games[msg.sender].stage == _stage, \"Function cannot be called at this time.\");\n    _;\n  }\n\n  /// @dev Make random number modular 52\n  function randNumber() private returns(uint num) {\n    num = uint(keccak256(abi.encodePacked(block.timestamp, seed))) % 52;\n    seed++;\n  }\n\n  /// @dev Check the card exists in hand already\n  /// @param card Card number which is drawn\n  /// @param hand Cards in hand\n  /// @return If there is card in hand already, return true\n  function checkHands(uint card, uint[] storage hand) private view returns(bool) {\n    for (uint8 i = 0; i < hand.length; i++) {\n      if (card == hand[i])\n        return true;\n    }\n    return false;\n  }\n\n  /// @dev Calculate total score in hands\n  /// @param player A player from a Blackjack game, holding a hand\n  /// @return score The Blackjack score for the player\n  function checkScore(Player storage player) private view returns (uint8 score) {\n    uint8 numberOfAces = 0;\n    for (uint8 i = 0; i < player.hand.length; i++) {\n      uint8 card = (uint8) (player.hand[i] % 13);\n      score += cardValues[card];\n      if (card == 0) numberOfAces++;\n    }\n    while (numberOfAces > 0 && score > 21) {\n      score -= 10;\n      numberOfAces--;\n    }\n  }\n\n  /// @dev Draw one card to player\n  /// @param game The current game containing the player drawing a card\n  /// @param player A player from a Blackjack game\n  function drawCard(Game storage game, Player storage player) private {\n    uint card = randNumber();\n    while ( checkHands(card, game.dealer.hand) || checkHands(card, game.player.hand) ) {\n      card = randNumber();\n    }\n\n    player.hand.push(card);\n    player.score = checkScore(player);\n\n    emit CardDrawn(game.id, game.round, cardValues[uint8(card % 13)], player.score);\n  }\n\n  /// @dev only at start of hand\n  /// @param game The current game which is starting\n  function dealCards(Game storage game) private atStage(Stage.Bet) {\n    drawCard(game, game.player);\n    drawCard(game, game.dealer);\n    drawCard(game, game.player);\n  }\n\n  /// @dev Step to next stage\n  /// @param game The current game which requires stage update\n  function nextStage(Game storage game) internal {\n    game.stage = Stage(uint(game.stage) + 1);\n\n    emit StageChanged(game.id, game.round, game.stage);\n  }\n\n  /// @dev Start a new round of Blackjack\n  function newRound() public payable {\n    require(msg.value <= maxBet, \"Bet must be less than the max bet.\");\n\n    uint id = uint(keccak256(abi.encodePacked(block.timestamp, msg.sender)));\n\n    Player memory dealer;\n    Player memory player;\n\n    games[msg.sender] = Game(id, uint64(block.timestamp), 0, Stage.Bet, dealer, player);\n    Game storage game = games[msg.sender];\n\n    game.player.bet = msg.value;\n    game.round++;\n\n    emit NewRound(game.id, game.round, msg.sender, msg.value);\n\n    dealCards(game);\n    emit PlayerHand(game.id, game.player.hand);\n\n    nextStage(game);\n  }\n\n  /// @dev Draw dealer's cards\n  /// @dev Dealer take a card until go over the player\n  /// @param game The ended Blackjack game\n  function drawDealerCards(Game storage game) private {\n    if (game.player.score > 21) {\n      drawCard(game, game.dealer);\n    } else {\n      while (game.dealer.score < game.player.score) {\n        drawCard(game, game.dealer);\n      }\n    }\n  }\n\n  /// @dev Calculate how much contract will be payout to player\n  /// @param game The ended Blackjack Game\n  /// @return payout Amount of ether to transfer to player for winnings [wei]\n  function calculatePayout(Game storage game) private view returns (uint payout) {\n    Player memory dealer = game.dealer;\n    Player memory player = game.player;\n\n    if (player.score == dealer.score) {\n      payout = player.bet;\n    } else if (dealer.score > 21) {\n      payout = SafeMath.mul(player.bet, 2);\n    } else {\n      payout = 0;\n    }\n  }\n\n  /// @dev Finish game\n  /// @param game The game to end, paying out players if necessary\n  function endGame(Game storage game) private {\n    uint payout = 0;\n\n    drawDealerCards(game);\n\n    if (game.player.score <= 21) {\n      payout = SafeMath.add(payout, calculatePayout(game));\n    }\n\n    require(payout <= SafeMath.mul(game.player.bet, 2), \"Dealer error - payout is to high.\");\n\n    if (payout != 0) {\n      address payable _player = payable(msg.sender);\n      _player.transfer(payout);\n    }\n\n    maxBet = SafeMath.div(address(this).balance, 2);\n\n    emit Result(game.id, game.round, payout, game.player.score, game.dealer.score);\n  }\n\n  /// @dev Take one additional card\n  function hit() public atStage(Stage.PlayHand) {\n    Game storage game = games[msg.sender];\n\n    require(game.player.score < 21);\n\n    drawCard(game, game.player);\n    game.player.score = checkScore(game.player);\n\n    if (game.player.score >= 21) {\n      nextStage(game);\n    }\n  }\n\n  /// @dev Taking no more cards and ended the game\n  function stand() public atStage(Stage.PlayHand) {\n    Game storage game = games[msg.sender];\n\n    nextStage(game);\n    endGame(game);\n  }\n\n  /// Getters\n  /// @dev Get dealer state\n  /// @return hand The dealer's hand\n  /// @return score The dealer's score\n  function getDealerState() public view returns (uint[] memory hand, uint score) {\n    Game storage game = games[msg.sender];\n    hand = game.dealer.hand;\n    score = game.dealer.score;\n  }\n\n  /// @dev Get player state\n  /// @return hand The player's hand\n  /// @return score The player's score\n  /// @return bet Original bet at start of hand\n  function getPlayerState() public view returns (uint[] memory hand, uint score, uint bet) {\n    Game storage game = games[msg.sender];\n    hand = game.player.hand;\n    score = game.player.score;\n    bet = game.player.bet;\n  }\n\n  /// @dev Get game stage\n  /// @return gameId ID for the current Blackjack game\n  /// @return startTime Time the current Blackjack game began\n  /// @return gameMaxBet Max bet allowed to be placed for new game\n  /// @return round Number of round of Blackjack game played\n  /// @return stage Stage of the Blackjack game\n  function getGameState() public view returns (uint gameId, uint64 startTime, uint gameMaxBet, uint64 round, Stage stage) {\n    Game storage game = games[msg.sender];\n    gameId = game.id;\n    startTime = game.startTime;\n    gameMaxBet = maxBet;\n    round = game.round;\n    stage = game.stage;\n  }\n}",
  "sourcePath": "/Users/cwrong/Desktop/BlockchainValley/2022_2_Sessions/blackjack/project/truffle/contracts/Blackjack.sol",
  "compiler": {
    "name": "solc",
    "version": "0.8.15+commit.e14f2714.Emscripten.clang"
  },
  "schemaVersion": "3.4.10",
  "updatedAt": "2022-09-25T06:08:37.234Z",
  "devdoc": {
    "kind": "dev",
    "methods": {
      "getDealerState()": {
        "details": "Get dealer state",
        "returns": {
          "hand": "The dealer's hand",
          "score": "The dealer's score"
        }
      },
      "getGameState()": {
        "details": "Get game stage",
        "returns": {
          "gameId": "ID for the current Blackjack game",
          "gameMaxBet": "Max bet allowed to be placed for new game",
          "round": "Number of round of Blackjack game played",
          "stage": "Stage of the Blackjack game",
          "startTime": "Time the current Blackjack game began"
        }
      },
      "getPlayerState()": {
        "details": "Get player state",
        "returns": {
          "bet": "Original bet at start of hand",
          "hand": "The player's hand",
          "score": "The player's score"
        }
      },
      "hit()": {
        "details": "Take one additional card"
      },
      "newRound()": {
        "details": "Start a new round of Blackjack"
      },
      "owner()": {
        "details": "Returns the address of the current owner."
      },
      "renounceOwnership()": {
        "details": "Leaves the contract without owner. It will not be possible to call `onlyOwner` functions anymore. Can only be called by the current owner. NOTE: Renouncing ownership will leave the contract without an owner, thereby removing any functionality that is only available to the owner."
      },
      "stand()": {
        "details": "Taking no more cards and ended the game"
      },
      "transferOwnership(address)": {
        "details": "Transfers ownership of the contract to a new account (`newOwner`). Can only be called by the current owner."
      }
    },
    "version": 1
  },
  "userdoc": {
    "kind": "user",
    "methods": {
      "getDealerState()": {
        "notice": "Getters"
      }
    },
    "version": 1
  }
}